:020000040800F2
:1000000000000824212100083D1C00083F1C0008B6
:10001000411C0008431C0008451C000800000000AB
:10002000000000000000000000000000471C000865
:10003000491C0008000000004B1C00084D1C000873
:100040007121000871210008712100087121000848
:100050007121000871210008712100087121000838
:10006000712100087121000871210008551C000849
:100070007121000871210008712100087121000818
:100080007121000871210008651C00087121000819
:1000900071210008712100087121000871210008F8
:1000A00071210008712100087121000871210008E8
:1000B00071210008712100087121000871210008D8
:1000C00071210008712100087121000871210008C8
:1000D00071210008712100087121000871210008B8
:1000E0007121000871210008000000007121000842
:1000F0007121000871210008712100087121000898
:100100007121000871210008712100087121000887
:100110007121000871210008712100087121000877
:100120007121000871210008712100087121000867
:100130007121000871210008712100087121000857
:1001400000000000000000000000000000000000AF
:100150007121000871210008712100087121000837
:100160007121000871210008712100087121000827
:100170007121000871210008712100087121000817
:100180007121000871210008712100087121000807
:1001900071210008712100087121000871210008F7
:1001A00071210008712100087121000871210008E7
:1001B00071210008712100087121000871210008D7
:1001C00071210008712100087121000871210008C7
:1001D00071210008751C00087121000871210008B8
:1001E00071210008712100087121000871210008A7
:1001F0007121000871210008712100087121000897
:100200007121000871210008712100087121000886
:100210007121000871210008712100087121000876
:100220007121000871210008712100080000000000
:1002300071210008712100080000000071210008F0
:100240007121000871210008712100087121000846
:100250007121000871210008712100087121000836
:100260007121000871210008712100087121000826
:1002700071210008712100087121000800000000B0
:1002800071210008712100087121000800000000A0
:080290000000000071210008CC
:1002C00010B5054C237833B9044B13B10448AFF390
:1002D00000800123237010BD500B0024000000009B
:1002E0002C31010808B5034B1BB103490348AFF398
:1002F000008008BD00000000540B00242C310108D0
:1003000081F0004102E000BF83F0004330B54FEAC6
:1003100041044FEA430594EA050F08BF90EA020F33
:100320001FBF54EA000C55EA020C7FEA645C7FEAC6
:10033000655C00F0E2804FEA5454D4EB5555B8BFE9
:100340006D420CDD2C4480EA020281EA030382EA5A
:10035000000083EA010180EA020281EA0303362DEC
:1003600088BF30BD11F0004F4FEA01314FF4801CBF
:100370004CEA113102D0404261EB410113F0004FD1
:100380004FEA03334CEA133302D0524263EB430388
:1003900094EA050F00F0A780A4F10104D5F1200E26
:1003A0000DDB02FA0EFC22FA05F2801841F1000181
:1003B00003FA0EF2801843FA05F359410EE0A5F155
:1003C00020050EF1200E012A03FA0EFC28BF4CF086
:1003D000020C43FA05F3C01851EBE37101F000453C
:1003E00007D54FF0000EDCF1000C7EEB00006EEB49
:1003F0000101B1F5801F1BD3B1F5001F0CD34908D3
:100400005FEA30004FEA3C0C04F101044FEA445229
:1004100012F5800F80F09A80BCF1004F08BF5FEAB0
:10042000500C50F1000041EB045141EA050130BD90
:100430005FEA4C0C404141EB0101013C28BFB1F5A2
:10044000801FE9D291F0000F04BF01460020B1FAED
:1004500081F308BF2033A3F10B03B3F120020CDAC0
:100460000C3208DD02F1140CC2F10C0201FA0CF09E
:1004700021FA02F10CE002F11402D8BFC2F1200C03
:1004800001FA02F120FA0CFCDCBF41EA0C019040B9
:10049000E41AA2BF01EB0451294330BD6FEA040402
:1004A0001F3C1CDA0C340EDC04F11404C4F12002ED
:1004B00020FA04F001FA02F340EA030021FA04F3FF
:1004C00045EA030130BDC4F10C04C4F1200220FA56
:1004D00002F001FA04F340EA0300294630BD21FA94
:1004E00004F0294630BD94F0000F83F4801306BF5A
:1004F00081F480110134013D4EE77FEA645C18BF4E
:100500007FEA655C29D094EA050F08BF90EA020FE4
:1005100005D054EA000C04BF1946104630BD91EADC
:10052000030F1EBF0021002030BD5FEA545C05D1DF
:100530004000494128BF41F0004130BD14F580041E
:100540003CBF01F5801130BD01F0004545F0FE4192
:1005500041F470014FF0000030BD7FEA645C1ABFC7
:10056000194610467FEA655C1CBF0B46024650EAFE
:10057000013406BF52EA033591EA030F41F400212A
:1005800030BD00BF90F0000F04BF0021704730B5B0
:100590004FF4806404F132044FF000054FF0000185
:1005A00050E700BF90F0000F04BF0021704730B546
:1005B0004FF4806404F1320410F0004548BF40421B
:1005C0004FF000013EE700BF42004FEAE2014FEA70
:1005D00031014FEA02701FBF12F07F4393F07F4F4B
:1005E00081F06051704732F07F4208BF704793F04E
:1005F0007F4F04BF41F40021704730B54FF4607461
:1006000001F0004521F000411CE700BF50EA010263
:1006100008BF704730B54FF000050AE050EA01020C
:1006200008BF704730B511F0004502D5404261EB7C
:1006300041014FF4806404F132045FEA915C3FF4BD
:10064000D8AE4FF003025FEADC0C18BF03325FEA5A
:10065000DC0C18BF033202EBDC02C2F1200300FA0B
:1006600003FC20FA02F001FA03FE40EA0E0021FA30
:1006700002F11444BDE600BF70B54FF0FF0C4CF41E
:10068000E06C1CEA11541DBF1CEA135594EA0C0FD0
:1006900095EA0C0F00F0DEF82C4481EA030621EA0B
:1006A0004C5123EA4C5350EA013518BF52EA033546
:1006B00041F4801143F4801338D0A0FB02CE4FF0F8
:1006C0000005E1FB02E506F00042E0FB03E54FF028
:1006D0000006E1FB03569CF0000F18BF4EF0010E20
:1006E000A4F1FF04B6F5007F64F5407404D25FEA1C
:1006F0004E0E6D4146EB060642EAC62141EA5551CF
:100700004FEAC52040EA5E504FEACE2EB4F1FD0C10
:1007100088BFBCF5E06F1ED8BEF1004F08BF5FEA8E
:10072000500E50F1000041EB045170BD06F0004640
:1007300046EA010140EA020081EA0301B4EB5C04ED
:10074000C2BFD4EB0C0541EA045170BD41F48011E5
:100750004FF0000E013C00F3AB8014F1360FDEBF0A
:10076000002001F0004170BDC4F10004203C35DAE6
:100770000C341BDC04F11404C4F1200500FA05F369
:1007800020FA04F001FA05F240EA020001F000420A
:1007900021F0004110EBD37021FA04F642EB060180
:1007A0005EEA430E08BF20EAD37070BDC4F10C04AA
:1007B000C4F1200500FA04F320FA05F001FA04F26E
:1007C00040EA020001F0004110EBD37041F100015A
:1007D0005EEA430E08BF20EAD37070BDC4F1200565
:1007E00000FA05F24EEA020E20FA04F301FA05F2CD
:1007F00043EA020321FA04F001F0004121FA04F275
:1008000020EA020000EBD3705EEA430E08BF20EA44
:10081000D37070BD94F0000F0FD101F0004640007E
:1008200041EB010111F4801F08BF013CF7D041EA00
:10083000060195F0000F18BF704703F00046520004
:1008400043EB030313F4801F08BF013DF7D043EAD5
:100850000603704794EA0C0F0CEA135518BF95EA8B
:100860000C0F0CD050EA410618BF52EA4306D1D112
:1008700081EA030101F000414FF0000070BD50EA31
:10088000410606BF1046194652EA430619D094EABB
:100890000C0F02D150EA013613D195EA0C0F05D1A5
:1008A00052EA03361CBF104619460AD181EA0301F9
:1008B00001F0004141F0FE4141F470014FF00000B1
:1008C00070BD41F0FE4141F4780170BD70B54FF04C
:1008D000FF0C4CF4E06C1CEA11541DBF1CEA1355CC
:1008E00094EA0C0F95EA0C0F00F0A7F8A4EB0504AE
:1008F00081EA030E52EA03354FEA013100F08880A5
:100900004FEA03334FF0805545EA131343EA12636D
:100910004FEA022245EA111545EA10654FEA002622
:100920000EF000419D4208BF964244F1FD0404F5DB
:10093000407402D25B084FEA3202B61A65EB030537
:100940005B084FEA32024FF480104FF4002CB6EBF4
:10095000020E75EB030E22BFB61A754640EA0C0074
:100960005B084FEA3202B6EB020E75EB030E22BFB4
:10097000B61A754640EA5C005B084FEA3202B6EBF5
:10098000020E75EB030E22BFB61A754640EA9C00B4
:100990005B084FEA3202B6EB020E75EB030E22BF84
:1009A000B61A754640EADC0055EA060E18D04FEA42
:1009B000051545EA16754FEA06164FEAC30343EAE2
:1009C00052734FEAC2025FEA1C1CC0D111F4801FAF
:1009D0000BD141EA00014FF000004FF0004CB6E7A8
:1009E00011F4801F04BF01430020B4F1FD0C88BF47
:1009F000BCF5E06F3FF6AFAEB5EB030C04BFB6EB52
:100A0000020C5FEA500C50F1000041EB045170BD44
:100A10000EF0004E4EEA113114EB5C04C2BFD4EB71
:100A20000C0541EA045170BD41F480114FF0000EF5
:100A3000013C90E645EA060E8DE60CEA135594EA71
:100A40000C0F08BF95EA0C0F3FF43BAF94EA0C0F74
:100A50000AD150EA01347FF434AF95EA0C0F7FF4E9
:100A600025AF104619462CE795EA0C0F06D152EA3D
:100A700003353FF4FDAE1046194622E750EA410621
:100A800018BF52EA43067FF4C5AE50EA41047FF432
:100A90000DAF52EA43057FF4EBAE12E74FF0FF3C97
:100AA00006E000BF4FF0010C02E000BF4FF0010C68
:100AB0004DF804CD4FEA410C7FEA6C5C4FEA430CE1
:100AC00018BF7FEA6C5C1BD001B050EA410C0CBF30
:100AD00052EA430C91EA030F02BF90EA020F002092
:100AE000704710F1000F91EA030F58BF994208BFF9
:100AF00090422CBFD8176FEAE37040F001007047B6
:100B00004FEA410C7FEA6C5C02D150EA013C07D10C
:100B10004FEA430C7FEA6C5CD6D152EA033CD3D057
:100B20005DF8040B704700BF8446104662468C4651
:100B30001946634600E000BF01B5FFF7B7FF002884
:100B400048BF10F1000F01BD4DF808EDFFF7F4FFAD
:100B50000CBF012000205DF808FB00BF4DF808ED38
:100B6000FFF7EAFF34BF012000205DF808FB00BF5B
:100B70004DF808EDFFF7E0FF94BF012000205DF87D
:100B800008FB00BF4DF808EDFFF7CEFF94BF012032
:100B900000205DF808FB00BF4DF808EDFFF7C4FF2B
:100BA00034BF012000205DF808FB00BF4FEA41027E
:100BB000B2F1E04324BFB3F5001CDCF1FE5C0DD9BB
:100BC00001F0004C4FEAC0024CEA5070B2F1004F05
:100BD00040EB830008BF20F00100704711F0804F08
:100BE00021D113F13872BCBF01F00040704741F4CD
:100BF00080114FEA5252C2F11802C2F1200C10FAD1
:100C00000CF320FA02F018BF40F001004FEAC123B4
:100C10004FEAD32303FA0CFC40EA0C0023FA02F358
:100C20004FEA4303CCE77FEA625307D150EA01332E
:100C30001EBF4FF0FE4040F44000704701F00040FE
:100C400040F0FE4040F40000704700BF53B94AB97D
:100C5000002908BF00281CBF4FF0FF314FF0FF30C4
:100C600000F074B9ADF1080C6DE904CE00F006F89F
:100C7000DDF804E0DDE9022304B070472DE9F04718
:100C8000089D04468E46002B4DD18A42944669D970
:100C9000B2FA82F252B101FA02F3C2F1200120FA53
:100CA00001F10CFA02FC41EA030E94404FEA1C48A1
:100CB000210CBEFBF8F61FFA8CF708FB16E341EA9D
:100CC000034306FB07F199420AD91CEB030306F123
:100CD000FF3080F01F81994240F21C81023E634444
:100CE0005B1AA4B2B3FBF8F008FB103344EA0344E8
:100CF00000FB07F7A7420AD91CEB040400F1FF33FD
:100D000080F00A81A74240F207816444023840EA39
:100D10000640E41B00261DB1D4400023C5E9004372
:100D20003146BDE8F0878B4209D9002D00F0EF80F5
:100D30000026C5E9000130463146BDE8F087B3FA28
:100D400083F6002E4AD18B4202D3824200F2F98010
:100D5000841A61EB030301209E46002DE0D0C5E913
:100D6000004EDDE702B9FFDEB2FA82F2002A40F05F
:100D70009280A1EB0C014FEA1C471FFA8CFE012662
:100D8000200CB1FBF7F307FB131140EA01410EFB06
:100D900003F0884208D91CEB010103F1FF3802D2AD
:100DA000884200F2CB804346091AA4B2B1FBF7F0A7
:100DB00007FB101144EA01440EFB00FEA64508D9CA
:100DC0001CEB040400F1FF3102D2A64500F2BB8007
:100DD0000846A4EB0E0440EA03409CE7C6F1200756
:100DE000B34022FA07FC4CEA030C20FA07F401FA9C
:100DF00006F31C43F9404FEA1C4900FA06F3B1FB25
:100E0000F9F8200C1FFA8CFE09FB181140EA014189
:100E100008FB0EF0884202FA06F20BD91CEB010126
:100E200008F1FF3A80F08880884240F28580A8F17E
:100E300002086144091AA4B2B1FBF9F009FB1011D0
:100E400044EA014100FB0EFE8E4508D91CEB01016E
:100E500000F1FF346CD28E456AD90238614440EA11
:100E60000840A0FB0294A1EB0E01A142C846A64691
:100E700056D353D05DB1B3EB080261EB0E0101FA1A
:100E800007F722FA06F3F1401F43C5E90071002677
:100E90003146BDE8F087C2F12003D8400CFA02FCCD
:100EA00021FA03F3914001434FEA1C471FFA8CFEDD
:100EB000B3FBF7F007FB10360B0C43EA064300FBCD
:100EC0000EF69E4204FA02F408D91CEB030300F16B
:100ED000FF382FD29E422DD9023863449B1B89B222
:100EE000B3FBF7F607FB163341EA034106FB0EF3AB
:100EF0008B4208D91CEB010106F1FF3816D28B4258
:100F000014D9023E6144C91A46EA004638E72E4623
:100F1000284605E70646E3E61846F8E64B45A9D21B
:100F2000B9EB020864EB0C0E0138A3E74646EAE78A
:100F3000204694E74046D1E7D0467BE7023B614438
:100F400032E7304609E76444023842E7704700BFA1
:100F500001F0FF01102A2BDB10F0070F08D010F86A
:100F6000013B013A8B422DD010F0070F42B3F6D16E
:100F7000F0B441EA012141EA014122F007047FF087
:100F800000070023F0E80256083C85EA010586EADE
:100F9000010685FA47F5A3FA87F586FA47F6A5FA1A
:100FA00087F68EB9EED1F0BC01F0FF0102F0070226
:100FB00032B110F8013B013A83EA010313B1F8D1D1
:100FC0000020704701387047002D06BF35460338B2
:100FD000073815F0010F07D1013015F4807F02BFEB
:100FE000013015F4C03F0130F0BC0138704700BF3C
:100FF000844641EA000313F003036DD1403A41D324
:1010000051F8043B40F8043B51F8043B40F8043BE2
:1010100051F8043B40F8043B51F8043B40F8043BD2
:1010200051F8043B40F8043B51F8043B40F8043BC2
:1010300051F8043B40F8043B51F8043B40F8043BB2
:1010400051F8043B40F8043B51F8043B40F8043BA2
:1010500051F8043B40F8043B51F8043B40F8043B92
:1010600051F8043B40F8043B51F8043B40F8043B82
:1010700051F8043B40F8043B51F8043B40F8043B72
:10108000403ABDD2303211D351F8043B40F8043B12
:1010900051F8043B40F8043B51F8043B40F8043B52
:1010A00051F8043B40F8043B103AEDD20C3205D322
:1010B00051F8043B40F8043B043AF9D2043208D01A
:1010C000D2071CBF11F8013B00F8013B01D30B888C
:1010D00003806046704700BF082A13D38B078DD06A
:1010E00010F003038AD0C3F10403D21ADB071CBF3C
:1010F00011F8013B00F8013B80D331F8023B20F8A6
:10110000023B7BE7043AD9D3013A11F8013B00F8DE
:10111000013BF9D20B7803704B7843708B78837066
:101120006046704700000000000000000000000062
:1011300000000000000000000000000000000000AF
:1011400090F800F06DE9024520F007016FF0000C07
:1011500010F0070491F820F040F049804FF00004AF
:101160006FF00700D1E9002391F840F000F108008A
:1011700082FA4CF2A4FA8CF283FA4CF3A2FA8CF3C2
:101180004BBBD1E9022382FA4CF200F10800A4FA29
:101190008CF283FA4CF3A2FA8CF3E3B9D1E904237D
:1011A00082FA4CF200F10800A4FA8CF283FA4CF3B4
:1011B000A2FA8CF37BB9D1E9062301F1200182FA6E
:1011C0004CF200F10800A4FA8CF283FA4CF3A2FA74
:1011D0008CF3002BC6D0002A04BF04301A4612BA82
:1011E000B2FA82F2FDE8024500EBD2007047D1E985
:1011F000002304F00305C4F100004FEAC50514F014
:10120000040F91F840F00CFA05F562EA05021CBFE4
:1012100063EA050362464FF00004A9E74FEA410C78
:101220007FEA6C5C02D150EA013C0AD14FEA430CE0
:101230007FEA6C5C02D152EA033C02D14FF000001D
:1012400070474FF0010070474FEA410212F500125B
:1012500015D211D56FF47873B3EB625212D94FEAFD
:10126000C12343F0004343EA505311F0004F23FAE7
:1012700002F018BF404270474FF00000704750EA3C
:10128000013005D111F0004008BF6FF000407047F9
:101290004FF00000704700BFFEE7002301E043402D
:1012A00040080028FBD103F00100704770B586B0FC
:1012B000ADF80E10041E27DB144D04EB44039E0012
:1012C00005EB830300221989586803F052FE64235A
:1012D000009301230DF116020DF10E01A85906F03D
:1012E000C7FE10B10023ADF81630084B04EB4401E3
:1012F00003EB81010C4601220989606803F039FE85
:10130000BDF8160006B070BDFFF7C6FF0000002450
:101310002DE9F04104460F461646C1F30D00FFF7D4
:10132000BCFF01282FD004EB44051A4B03EB8505C5
:1013300000222989686803F01CFE39462046FFF721
:10134000B5FF01222989686803F013FEC6F30D007A
:10135000FFF7A3FF012819D00E4F04EB440507EB5C
:10136000850500222989686803F003FE314620467E
:10137000FFF79CFF064601222989686803F0F9FD02
:101380003046BDE8F08147F40047CCE746F400461C
:10139000E2E700BF0000002438B505460C460846C9
:1013A000FFF77BFF08B944F4004444F48041284629
:1013B000FFF77CFF00212846FFF778FFC0F30D0000
:1013C00038BD10B500240AE0052218212046FFF799
:1013D0009FFF002219212046FFF79AFF0134012CBC
:1013E000F2D910BD10B59AB000241794189419942E
:1013F00010941194129413941494159416943C22FE
:10140000214601A80BF028FC3A483B4B036044609E
:10141000042282600123C360026104754375836105
:101420000477446284620323C3620463446380F8E4
:10143000384001F081FD00284DD10023179317A9F2
:101440002C4802F08FFA002848D12A4C204602F09E
:1014500039FB2A4B1093062311930523129340F274
:10146000FF73139304231493002315938DF85930BD
:1014700010A9204601F066F9002832D1204B0193D3
:10148000092302930122039240F2FF730493042381
:10149000059300230693022109918DF828208DF8E9
:1014A00029308DF82A3080220B924FF480720C92F2
:1014B0008DF8343001A90F4801F036FFA0B9114B67
:1014C000019340F20F13029301A90A4801F02CFF87
:1014D00068B91AB010BD00F009FAAEE700F006FADC
:1014E000B3E700F003FAC9E700F000FAE7E700F01D
:1014F000FDF9EEE76C0B0024002002400040C03AEA
:10150000000021430000524710B588B00023039328
:1015100004930593069307930268274B9A4201D0E0
:1015200008B010BD0446254BD3F8D82042F0200265
:10153000C3F8D820D3F8D82002F020020192019AF3
:10154000D3F8E02042F00102C3F8E020D3F8E03005
:1015500003F001030293029B0723039303230493E5
:1015600003A9174803F000FC1648174B0360092332
:10157000436000238360C3604FF4806202614FF4D4
:10158000805242614FF4804282614FF48072C261A6
:101590000362436202F02EFD58B90A4BE3649C6378
:1015A00000221146122002F0B9FA122002F0ECFAE1
:1015B000B6E700F09BF9F0E7002002400044025833
:1015C00000000258D00B00241000024000B583B088
:1015D0000B4BD3F8D82042F00102C3F8D820D3F83F
:1015E000D83003F001030193019B002211460B2028
:1015F00002F094FA0B2002F0C7FA03B05DF804FB86
:1016000000440258F0B58DB0002407940894099462
:101610000A940B94394BD3F8E02042F01002C3F83F
:10162000E020D3F8E02002F010020192019AD3F8F2
:10163000E02042F00402C3F8E020D3F8E02002F0FA
:1016400004020292029AD3F8E02042F08002C3F82A
:10165000E020D3F8E02002F080020392039AD3F84E
:10166000E02042F00102C3F8E020D3F8E02002F0CD
:1016700001020492049AD3F8E02042F00202C3F877
:10168000E020D3F8E02002F002020592059AD3F898
:10169000E02042F00802C3F8E020D3F8E03003F085
:1016A00008030693069B164F22460821384603F08E
:1016B00060FC144D22464021284603F05AFC0823C2
:1016C00007930126089609940A9407A9384603F05F
:1016D0004BFB4FF40053079308940223099307A987
:1016E000094803F041FB40230793089609940A94A4
:1016F00007A9284603F038FB0DB0F0BD004402589E
:1017000000100258000C02580008025808B514488E
:10171000144B0360144B4360002383600122C260BA
:10172000036143618361C361036203F031FC68B903
:1017300000210B4803F08AFC58B90021084803F047
:10174000B3FC48B9012003F0DBFC08BD00F0CEF883
:10175000EEE700F0CBF8F0E700F0C8F8F2E700BFE2
:10176000480C0024005400404F17500010B588B0BA
:101770000023039304930593069307930268144B85
:101780009A4201D008B010BD124CD4F8E03043F0BA
:101790000203C4F8E030D4F8E03003F00203019310
:1017A000019BC0230393122304930423079303A9EB
:1017B000094803F0D9FAD4F8E83043F40013C4F828
:1017C000E830D4F8E83003F400130293029BD9E721
:1017D00000540040004402580004025838B5054641
:1017E000092101F081FD2A4C206040F20F112846AA
:1017F00001F07AFD606094ED007AB8EE477A9FEDD3
:10180000256A27EE067ADFED246A27EE267A234B37
:10181000D3ED417A37EE677A83ED3F7A07EE900A8F
:10182000F8EE677A67EE867A67EEA67A93ED427AEB
:1018300077EEC77AC3ED407A194B1B783BB9194B49
:1018400001221A700821184803F099FB38BD134C87
:10185000164B93ED001A164BD3ED000A9FED150AB7
:1018600020460AF05BF8D4ED3C7A94ED3D7AD4ED55
:101870003E6AFDEEE66A16EE902ABDEEC77A17EED6
:10188000101AFDEEE77A17EE900A0AF025F9D6E76E
:10189000182800243333534000008038E426002405
:1018A0009C0C0024940C002400100258980C002476
:1018B00018000024000000000EB430B5A2B00546A8
:1018C00025AB53F8042B2193802101A80BF034FAA7
:1018D00004464FF0FF3382B201A9284607F0F5FE17
:1018E000204622B0BDE8304003B0704772B6FEE734
:1018F00000B5CDB04C22002139A80BF0ADF9202263
:10190000002131A80BF0A8F9BC22002102A80BF09D
:10191000A3F9022004F0EAF900230193394B9A69F4
:1019200042F440429A619B6903F440430193364B71
:10193000DA6A42F00102DA62DB6A03F00103019322
:10194000019B304B9B6913F4005FFAD02F4A936AD6
:1019500023F0030343F002039362212339934FF4EE
:1019600080333A9301233F9302234293439305220A
:101970004492C02145914693479248930823499346
:1019800000234A934B9339A804F0E2F9002833D19D
:101990003F2331930323329300233393082334935B
:1019A0004023359336934FF4806237923893042165
:1019B00031A804F0EBFD08BB154B029302230393FF
:1019C0000C2204920122059206930793C0230893E8
:1019D0002023099300230A931993209322934FF411
:1019E000401223922A9302A805F06CF840B904F043
:1019F000A7F94DB05DF804FBFFF778FFFFF776FF1E
:101A0000FFF774FF004802580004005800440258D1
:101A100009100C0010B5334C4FF08043A365324BD6
:101A2000E365002323664FF07E52E2632F4A22646F
:101A300063646367A367E3672D4A136000F060FC8B
:101A4000FFF756FFFFF7DEFDFFF7C0FD00F05CFA81
:101A500000F0F6FAFFF75AFEFFF7C4FC00F05AF860
:101A600009F0BAFB204609F049FE02462149224806
:101A7000FFF722FF204609F04BFE204B40F2B63222
:101A80001A641F4B01221A7000F074FC04464FF4D4
:101A900000511C4803F066FA012811D01A4B1B783C
:101AA000002BF4D00F4B1868FEF78EFD02460B4654
:101AB00016491148FFF700FF134B00221A70E6E7A2
:101AC00000F058FC031BB3F5FA7FE7D900F052FC95
:101AD00004460F4BD3ED007AF1EE677AC3ED007A3E
:101AE000DCE700BFE42600240AD7233CCDCC4C3DE4
:101AF000980C002450310108780D002400000140AA
:101B00009C0C002400080258940C00245431010855
:101B10001800002408B51548154B03604FF48003E6
:101B20004360002383600F22C26003614FF0807224
:101B300042614FF0806282614FF0A042C261036255
:101B400043628362C3624FF0804242638363C36334
:101B5000036443648364C36403654365836506F07B
:101B6000DFF900B908BDFFF7C1FEFBE7A00C0024B8
:101B70000030014030B589B00023039304930593EE
:101B8000069307930268204B9A4201D009B030BDFA
:101B90001E4BD3F8F02042F48052C3F8F020D3F863
:101BA000F02002F480520092009AD3F8E02042F034
:101BB0000102C3F8E020D3F8E02002F00102019214
:101BC000019AD3F8E02042F00802C3F8E020D3F8ED
:101BD000E03003F008030293029B60230393022585
:101BE00004950524079403A9094803F0BDF8802350
:101BF00003930495002305930693079403A90548CE
:101C000003F0B2F8C2E700BF0030014000440258C0
:101C100000000258000C025882B0074BD3F8F420A1
:101C200042F00202C3F8F420D3F8F43003F00203C8
:101C30000193019B02B0704700440258FEE7FEE7A3
:101C4000FEE7FEE7FEE770477047704708B500F013
:101C500085FB08BD08B5024802F0EAFC08BD00BFDC
:101C6000D00B002408B5024800F0AEFB08BD00BF51
:101C70006C0B002408B5024803F024FC08BD00BF2B
:101C8000DC2200240120704708B50AF0FBFC162373
:101C900003604FF0FF3008BD08B54FF0FF31FFF78C
:101CA000F3FFFEE770B50C461646002506E0AFF3DD
:101CB0000080214601F8010B01350C46B542F6DBE8
:101CC000304670BD70B50C461646002504E014F889
:101CD000010BAFF300800135B542F8DB304670BD33
:101CE0004FF0FF3070474FF400534B6000207047B7
:101CF000012070470020704710B503460C4A0D497B
:101D00000D48006840B10C4800680344521A9342E1
:101D100006D8094A136010BD0748084C0460F2E772
:101D20000AF0B0FC0C2303604FF0FF30F3E700BF74
:101D30000000082400040000280D0024702800245E
:101D4000294AD2F8883043F47003C2F88830274B10
:101D50001B6803F00F03062B06D8244A136823F0F0
:101D60000F0343F007031360214B1A6842F001028E
:101D70001A6000221A6119681E4A0A401A601B4B39
:101D80001B6813F0080F06D0184A136823F00F03DE
:101D900043F007031360164B00229A61DA611A625E
:101DA000154999621549D962154919635A639963AE
:101DB000DA6319645A64196821F4802119601A667B
:101DC000104B1A68104B1340B3F1005F03D20F4B56
:101DD0000122C3F808210E4B43F2D2021A60024BD3
:101DE0004FF000629A60704700ED00E00020005262
:101DF000004402587FEDF6EA000202020000FF01F3
:101E0000800201010010005C0000FFFF0080005113
:101E10000040005202680A4B9A4200D0704782B0DC
:101E2000084BD3F8F02042F00102C3F8F020D3F8B9
:101E3000F03003F001030193019B02B0704700BF33
:101E40000000014000440258F0B589B0002303931C
:101E500004930593069307930268264B9A4201D098
:101E600009B0F0BD244BD3F8E02042F00102C3F8E2
:101E7000E020D3F8E02002F001020092009AD3F8AB
:101E8000E02042F00202C3F8E020D3F8E02002F0A4
:101E900002020192019AD3F8E02042F01002C3F846
:101EA000E020D3F8E03003F010030293029B80237C
:101EB000039302260496032406940125079503A99B
:101EC0000E4802F051FF03940496002705970694EC
:101ED000079503A90A4802F047FF4FF428530393DC
:101EE000049605970694079503A9064802F03CFF5F
:101EF000B6E700BF0000014000440258000002584D
:101F0000000402580010025810B59AB0002416942C
:101F10001794189419941394149415940C940D9484
:101F20000E940F941094119412942C22214601A81F
:101F30000AF092FE4048414B036005234360202392
:101F4000836040F2E733C36004614461846106F05A
:101F500097FC002855D14FF48053169316A93648A4
:101F600006F0DAFD00284FD1334806F0B9FC00280E
:101F70004DD17023139300231493159313A92E4866
:101F800006F056FF002845D160230C9300220D92E5
:101F90000E920F921092119212920CA9264806F0FE
:101FA00019FD002839D104220CA9234806F012FD9E
:101FB000002835D108220CA91F4806F00BFD002887
:101FC00031D10C220CA91C4806F004FD70BB002383
:101FD000019302930393049305934FF400520692E6
:101FE000079308934FF0007209920A930B9301A98B
:101FF000114806F069FFE0B90F48FFF725FF1AB056
:1020000010BDFFF773FCA6E7FFF770FCACE7FFF726
:102010006DFCAEE7FFF76AFCB6E7FFF767FCC2E7C7
:10202000FFF764FCC6E7FFF761FCCAE7FFF75EFC59
:10203000CDE7FFF75BFCDFE72C0D0024000001403B
:1020400008B51748174B03604FF4E1334360002392
:102050008360C36003610C2242618361C3610362D8
:102060004362836207F0D7FB70B900210C4807F088
:102070005CFC60B900210A4807F07CFC50B90848B4
:1020800007F034FC48B908BDFFF730FCEDE7FFF777
:102090002DFCEFE7FFF72AFCF1E7FFF727FCF2E75B
:1020A000780D00240010014000B589B0002303938F
:1020B0000493059306930793026803F1804303F5A5
:1020C00088339A4202D009B05DF804FB124BD3F872
:1020D000F02042F01002C3F8F020D3F8F02002F014
:1020E00010020192019AD3F8E02042F00202C3F8F4
:1020F000E020D3F8E03003F002030293029B4FF498
:1021000040430393022304930423079303A9034842
:1021100002F02AFED7E700BF00440258000402582C
:10212000DFF834D0FFF70CFE002103E00B4B5B58C7
:10213000435004310A480B4B42189A42F6D30A4ADC
:1021400002E0002342F8043B084B9A42F9D30AF01C
:102150009FFAFFF75FFC704700000824043E010867
:1021600000000024500B0024500B00246C28002495
:10217000FEE7000010B4DFED4A7A60EE277AF5EE54
:10218000C07AF1EE10FA00F18380BDEEE77AB8EE86
:10219000C77A77EEC77A9FED437A67EE877ABCEE0F
:1021A000E77A17EE103AC3F3080303F18002C2F393
:1021B000080207EE103AB8EE477A77EEC77A3A4C43
:1021C00004EB820C9CED006A013204EB820292ED7A
:1021D000003A04EB830292ED005AB1EE454A013316
:1021E00004EB8303D3ED006A73EE465A34EE667A4D
:1021F000DFED2E4A27EE247A75EEA53A37EE637AA4
:1022000027EE877AF0EE082A65EEA25A74EE043AB9
:1022100073EEE63A63EEA43A75EEE35A37EE257AAA
:1022200027EE877A24EE244A37EE047A27EE877A5F
:1022300037EE067A81ED007A76EEC56A36EE037ADD
:1022400027EE247A76EEA65A37EE657A27EE877A5D
:1022500066EEA26A76EE065A75EE835A65EEA45AC9
:1022600076EEE56A37EE267A27EE877A26EE246A3E
:1022700037EE067A67EE877A75EE277AC0ED007A38
:10228000B5EEC00AF1EE10FA05D45DF8044B7047C4
:10229000F1EE677A79E7F1EE677AC0ED007AF4E75C
:1022A000610B363B0000004470310108DB0F493CF4
:1022B000104B1B780BB90120704710B504464FF442
:1022C0007A70B0FBF3F30C4A1068B0FBF3F001F046
:1022D00069FC68B90F2C01D901200AE000222146CF
:1022E0004FF0FF3001F01AFC044B1C60002000E0AE
:1022F000012010BD240000241C000024280000241C
:1023000010B5032001F0F8FB04F046F80F498B6983
:10231000C3F303230E4AD35C03F01F03D8408B6939
:1023200003F00F03D35C03F01F0320FA03F3094A01
:102330001360094B18600020FFF7BAFF10B10124A9
:10234000204610BD0446FFF767FCF9E70044025839
:1023500060310108200000241C000024034B1B787E
:10236000034A11680B441360704700BF2400002427
:10237000040E0024014B1868704700BF040E0024AF
:1023800038B50446FFF7F6FF0546B4F1FF3F02D02B
:10239000044B1B781C44FFF7EDFF401BA042FAD30F
:1023A00038BD00BF24000024014B1868000C7047A2
:1023B0000010005C7047704708B5806BFFF7FBFFAB
:1023C00008BD704770470000F8B5044603681D68F3
:1023D0005E689649964A934218BF8B4240D1954B0E
:1023E0009F6807F01F0715F0020F10D016F0020FBC
:1023F0000DD0636D13F0100F03D1636D43F40063D0
:102400006365204600F08FFF236802221A6015F0F2
:10241000040F02D016F0040F05D115F0080F4FD0AD
:1024200016F0080F4CD0636D13F0100F03D1636DDD
:1024300043F4007363652368DA6812F4406F39D19E
:102440007B4A93420ED01A4693420ED0052F14BFFA
:10245000002101214FB141B9092F06D0D26805E012
:10246000754BBDE7A2F58072EEE7DA6812F4005F03
:1024700020D11A6812F0080F1CD09A6812F0040FCD
:1024800010D15A6822F00C025A60636D23F48073F5
:102490006365636D13F4805F0CD1636D43F00103DA
:1024A000636507E0636D43F010036365A36D43F05C
:1024B0000103A3652046FFF77DFF23680C221A6005
:1024C00015F0200F02D016F0200F05D115F0400FA7
:1024D00063D016F0400F60D0636D13F0100F03D17E
:1024E000636D43F4005363652368DA6C12F4C07FB4
:1024F00019D10121DA6812F4406F16D101204C4A3B
:10250000934214D01A46934214D0062F14BF4FF0B2
:10251000000C4FF0010C6FB1BCF1000F0AD1072F76
:1025200008D0D26807E00021E4E70020E7E7A2F541
:102530008072E8E7DA6831B912F0007F27D130B352
:1025400012F4005F23D1196811F0400F1FD012F46C
:10255000001F1CD19A6812F0080F10D15A6822F09F
:1025600060025A60636D23F480536365636D13F4F6
:10257000807F0CD1636D43F00103636507E0636DF9
:1025800043F010036365A36D43F00103A365204688
:10259000FFF724F9236860221A6015F0800F02D03B
:1025A00016F0800F36D115F4807F02D016F4807FAC
:1025B00044D115F4007F02D016F4007F4AD115F003
:1025C000100F20D016F0100F1DD0236B6BB1002F11
:1025D0004ED023681549164A934218BF8B4245D105
:1025E000144B9B6813F4404F0AD0636D43F480632F
:1025F0006365A36D43F00203A3652046FFF7E2FE87
:10260000236810221A6015F4806F02D016F4806FD0
:1026100034D1F8BD636D43F4803363652046FFF722
:10262000D0FE236880221A60BDE700BF0020024070
:10263000002102400023024000630258636D43F40E
:1026400000336365204600F06CFE23684FF480720F
:102650001A60AEE7636D43F480236365204600F0A3
:1026600061FE23684FF400721A60A8E70B4BB8E7CD
:102670002368DB6813F0030FC2D0B6E7636D43F441
:1026800080436365A36D43F00803A36523684FF49B
:1026900080621A60204600F043FEBAE700630258E9
:1026A00008B50346806B426D12F0500F30D1436D78
:1026B00043F40073436503681A6812F0080F14D0DE
:1026C000DA6812F4406F20D1DB6813F4005F1CD18C
:1026D000436D23F480734365436D13F4805F14D11D
:1026E000436D43F0010343650FE0DB6813F0030F14
:1026F0000BD1436D23F480734365436D13F4805F06
:1027000003D1436D43F001034365FFF753FE08BD5A
:10271000426D12F0100F04D1C26CD26C1846904773
:10272000F5E7FFF74FFEF2E708B5806B436D43F026
:1027300040034365836D43F004038365FFF742FE66
:1027400008BD0000F0B583B00022019290F850203F
:10275000012A00F035820346012280F850200068EB
:10276000826812F0040F09D05A6D42F020025A65B7
:102770000120002283F8502003B0F0BD0A68C2F3A4
:102780001304002C4ED1C2F3846201249440C26928
:102790002243C2611D684C683035220A920002F063
:1027A0000C02A85804F01F0E1F2404FA0EF420EAAD
:1027B00004000C68C4F3846C0CFA0EFC40EA0C00B4
:1027C000A8501C68A26812F0040200D00122A06880
:1027D00010F0080000D0012002432CD01868826855
:1027E00012F0010F40F0E8810A68CD68D0F8C040CF
:1027F000C2F3130624EA060405F0180CAB4D25FAC3
:102800000CF52A40C2F313022243C0F8C020C86866
:10281000A74A904200F0AD800A68002AC0F24C81BD
:102820000020A6E792FAA2F2B2FA82F202F01F02A8
:1028300001249440ABE70F688D681434780E800053
:1028400000F004002658C7F3045E4FF0070C0CFAA2
:102850000EFC26EA0C0C05FA0EF54CEA050525508F
:102860009448006800F07040B0F1805F0BD01C68A5
:10287000E06810F0100F39D14869E468C4F38204AD
:102880006400A04006E048691C68E468C4F3820460
:102890006400A0400D69042D36D01F680E686037B3
:1028A00057F8254004F0004406F0F8463043204332
:1028B00047F8250018680E694C7E012C1ED015467D
:1028C000603050F8264024F000442C4340F8264065
:1028D0001D680C69087E012813D0286920F4F04097
:1028E00004F01F04A24002432A6177E74869E468C4
:1028F000A40804F004046400A040CBE74FF00045B6
:10290000DEE74FF40062E8E71868026E02F0F84272
:102910000C68B2EB846F1DD01868426E02F0F8426A
:102920000C68B2EB846F1AD01868826E02F0F8421D
:102930000C68B2EB846F17D01868C26E02F0F842D0
:102940000C68B2EB846F7FF449AFC26E22F0004294
:10295000C26643E7026E22F000420266DCE7426E86
:1029600022F000424266DFE7826E22F00042826679
:10297000E2E71C680A68C2F313058DBB900E0130B4
:1029800000F01F0009288CBF00200120002851D032
:1029900095BB900E0130800600F0F840ADBB960E5E
:1029A000013606F01F070126BE403043BDBB920E24
:1029B000013202F01F0202EB420212050243886854
:1029C0001434550EAD0005F004056659C2F30452E7
:1029D0000727974026EA07069040304360511BE7DF
:1029E00092FAA2F0B0FA80F0013000F01F0009283E
:1029F0008CBF00200120C9E792FAA2F0B0FA80F063
:102A00000130800600F0F840C8E792FAA2F6B6FA64
:102A100086F6013606F01F070126BE40C5E792FA8A
:102A2000A2F2B2FA82F2013202F01F0202EB42027B
:102A30001205C3E7CDB9900E0130800600F0F840D2
:102A4000E5B9960E013606F01F070126BE40304359
:102A5000F5B9920E013202F01F0202EB42021E3A59
:102A6000120542F000720243A9E792FAA2F0B0FA0E
:102A700080F00130800600F0F840E1E792FAA2F61B
:102A8000B6FA86F6013606F01F070126BE40DEE7DD
:102A900092FAA2F2B2FA82F2013202F01F0202EBC3
:102AA00042021E3A120542F00072DCE7FFFF0F00FF
:102AB0000000FF470010005C19684248424CA142E8
:102AC00018BF81420CBF0120002021D13F4EB568C4
:102AD00005F0E077F0B13B48806810F0010000D0CD
:102AE0000120394CA46814F0010400D001242043D3
:102AF0000CBF01200020002858D03548824212D057
:102B00003448824230D0344882423ED0002030E601
:102B1000324EDCE73248806810F0010000D001201E
:102B200080F00100E7E715F4000FE9D12C4A91424B
:102B300001D000201DE647F40002B16821F0E071E9
:102B40000A43B260274A126892092749A1FB021280
:102B500092095200019202E0019A013A0192019A0F
:102B6000002AF9D1002004E615F0807FCBD11C4A61
:102B7000914201D00020FCE547F08072B16821F05D
:102B8000E0710A43B2600020F3E515F4800F15D11F
:102B9000134A914201D00020EBE547F48002B1686E
:102BA00021F0E0710A43B2600020E2E55A6D42F084
:102BB00020025A650120DCE50020DAE50020D8E596
:102BC0000220D9E5002002400021024000230240FB
:102BD000000084CB000052C70000B8CF0063025849
:102BE000006002581C000024632D3E0538B50368C0
:102BF0009A6812F0010F52D104469968294A11428D
:102C000009D0436D43F010034365836D43F0010326
:102C10008365012044E09968234A0A4042F001029A
:102C20009A60FFF7A7FB054623682049204A934294
:102C300018BF8B420DD102F50072926802F01F029C
:102C40001B498B4207D0194699420CD05AB100203B
:102C500026E0184AF1E7A1F58071F5E7FFF78AFB56
:102C6000401B02280FD823681A6812F0010F14D1F4
:102C70009A6812F0010FF1D199680B4A0A4042F0AC
:102C800001029A60EAE7636D43F010036365A36D88
:102C900043F00103A365012002E0002000E00020D2
:102CA00038BD00BF3F000080C0FFFF7F0020024012
:102CB0000021024000630258F8B504460E4617464C
:102CC00000683D4A3D4B984218BF90421AD103F527
:102CD00000739D6805F01F05806810F0040F67D130
:102CE00094F85030012B65D0012384F85030052D25
:102CF00018BF002D08D0092D06D0002384F85030CD
:102D0000012056E02E4BE4E72046FFF76FFF002836
:102D10004AD1626DA0F60273134043F48073636579
:102D20002368264A934239D01A46934200D01DB9EF
:102D3000636D23F480136365636D13F4805F30D09B
:102D4000A36D23F00603A365E36C1E4ADA63E36C0C
:102D50001D4A1A64E36C1D4ADA6423681C221A6057
:102D6000002384F850302268536843F01003536006
:102D70002168E36ACA6822F003021343CB6021682A
:102D80003B4632464031E06C01F006FB2268916818
:102D90000F4B0B4043F0040393600AE0A2F58072EE
:102DA000C3E70023A365CFE7002384F8503000E099
:102DB0000220F8BD0220FCE7002002400021024072
:102DC00000630258A1260008B9230008292700083B
:102DD000C0FFFF7F38B5044603684F494F4A93420E
:102DE00018BF8B4223D14E4B9B6813F4403F14BF56
:102DF000012300234BB303F013FD05466368B3F5CD
:102E0000003F1CD0B3F5403F1DD0B3F5803F16D036
:102E1000FFF7CAFA41F20303984257D8414B9D424B
:102E20004ED92268936843F48073936038BD3E4B5B
:102E30009B6813F4403F14BF01230023DAE71B0C07
:102E4000B5FBF3F5E4E78508E2E74FF4002004F072
:102E500013FE05466368B3F5101F2DD022D8B3F5D5
:102E6000E01F27D004D9B3F5001FD1D14509CFE722
:102E7000B3F5801F0DD006D9B3F5A01F09D0B3F567
:102E8000C01F06D0C4E7B3F5002F02D0B3F5402F22
:102E900004D19B0C5B00B5FBF3F5B9E7B3F5802FCC
:102EA000F7D0B5E7B3F5201F08D0B3F5301FAFD189
:102EB000050AADE70509ABE78509A9E7C509A7E755
:102EC0002268936823F480739360AFE7174B9D42A9
:102ED00005D82268936823F440739360A6E7144BE7
:102EE0009D4207D82268936823F4407343F48073AB
:102EF00093609BE70F4B9D4207D82268936823F4A9
:102F0000407343F40073936090E72268936843F43E
:102F1000407393608AE700BF002002400021024016
:102F200000230240002D31010063025821BCBE0085
:102F300041787D0181F0FA0230B583B0002301931E
:102F4000002800F00F810446436DE3B123689A68BE
:102F500012F0005F03D09968834A0A409A602368A0
:102F60009A6812F0805F1BD19968804A0A4042F04B
:102F700080529A607E4B1B689B097E4AA2FB03230A
:102F80009B09019309E0FEF7BFFA0023A36584F8CB
:102F90005030DBE7019B013B0193019B002BF9D1F2
:102FA0002268936813F0805F40F09C80636D43F06B
:102FB00010036365A36D43F00103A36501259368C6
:102FC00013F0040300D00123616D11F0100F40F0E5
:102FD000C180002B40F0BE80636D23F4817343F009
:102FE00002036365936813F0010F21D16249634BBB
:102FF0009A4218BF8A420CBF0122002274D18B680A
:1030000013F0010300D001235C49896811F001012C
:1030100000D001210B430CBF0123002343B1002A40
:103020006BD0574963688A6822F47C1213438B6023
:10303000FFF7BAF941F20303984202D9A368102BB3
:103040005DD0627D236B43EA4233A2681343227F43
:1030500043EA0243227F012A5CD0626A22B102F471
:103060007872A16A0A4313432168C868454A02403E
:103070001343CB6021688B6813F0040300D0012355
:103080008A6812F0080200D0012213431BD1227D6E
:10309000E36A43EA8232C8683B4B03401343CB6088
:1030A00094F83830012B3AD02268136923F00103D9
:1030B00013612268136923F07043616B0B43136142
:1030C0002046FFF787FEE368012B3AD02268136B96
:1030D00023F00F031363636D23F0030343F0010335
:1030E00063653CE000256AE7284B9B6813F0010309
:1030F00000D0012383F0010390E7254992E7617D29
:10310000226B42EA41321343227F43EA024343F0F7
:103110000C039FE7226A013A43EA42439DE7206895
:1031200002691C4B1340E26B511E226C42EA0142C1
:10313000616C0A43A16C0A43134343F0010303612A
:10314000B7E721680B6B23F00F03A269013A134321
:103150000B63C0E7636D43F01003636501252846E8
:1031600003B030BD0125FAE7C0FFFF5FC0FFFF6F6E
:103170001C000024632D3E05002002400021024077
:103180000023024003C0F0FFFCBFFFFF00600258B5
:10319000006302581EF800FC38B5044603684D4928
:1031A0004D4A934218BF8B4265D102F50072956873
:1031B00005F01F059A6812F0080F40F08780DA6862
:1031C000DB6C13F4C07F01D1002A56DA94F850303A
:1031D000012B7DD0012384F850302046FFF706FDF7
:1031E00000286FD1636D13F4807F4CD0A36D23F062
:1031F0000803A365626D394B134043F48053636544
:103200002368354A934241D01A46934200D01DB9F3
:10321000626D22F48012626560221A60002384F8D5
:1032200050302368DA6812F4001F03D05A6842F461
:1032300080625A602369082B2BD02268536823F0E0
:10324000400353602268536843F0200353602368AF
:10325000214A934228D01A46934228D0062D14BF03
:10326000002201221DB312BB072D20D0636D43F451
:10327000801363652BE01A4A99E7636D43F02003DE
:103280006365012023E00023A365B3E7A2F5807204
:10329000BBE72268536823F0200353602268536819
:1032A00043F040035360D2E7A2F58072D4E7DA68B6
:1032B00012F0007F0BD199680A4A0A4042F00802D6
:1032C0009A6004E0002384F8503000E0022038BD0A
:1032D0000220FCE70020024000210240FECFFFFF59
:1032E00000630258C0FFFF7F40F2152399420FD0C0
:1032F00040F21B33994207D040F20F1399420BD092
:103300000368D3F8800070470368D3F88C007047D7
:103310000368D3F8880070470368D3F884007047C7
:103320007047704770477047F0B583B0034600227E
:103330000192C06893F85020012A00F0FD8201221A
:1033400083F85020A8B10A6A012A12D0186E00280A
:1033500040F0AE801A660022DA658C6A002C00F01C
:10336000A4800A6A013A04F07C042243CC6A144324
:103370009FE04A68092A78D01868826812F0080F1E
:103380001ED10A68C2F31304002C40F0B180C2F3CE
:10339000846201249440C2692243C26191F82520CD
:1033A000002A40F0AE801C68E26822F4401291F8D6
:1033B000265091F82400000540EA45500243E2609F
:1033C0001C68A26812F0040200D00122A06810F06C
:1033D000080000D00120024340F05D81886A18B1E6
:1033E000C86A002840F09D8091F82500012800F06F
:1033F0009280E06820F00070E060002091F830409A
:10340000012C00F09D801D682C6924F002042C61C1
:103410001C680E6804F1140E740EA40004F0040479
:103420005EF80450C6F3045C072606FA0CF625EA9B
:1034300006058E6806FA0CFC45EA0C054EF80450A9
:10344000A84C246804F07044B4F1805F00F08680DA
:103450001D68EC6814F0100F40F0A6804C69ED6810
:10346000C5F382056D00AC407FE08C6ABCB1086892
:10347000820E520202F4785204F07C042243C86A9D
:1034800002431C68E06C20F07B4020F46F0020F4C5
:103490003F4020F0FF001043E064DA656CE70A6803
:1034A000920E520202F47852EBE70A6A541E00E0D0
:1034B00000240868C0F384604A6802F01F0200FA22
:1034C00002F22243186E01381866DC6D2243DA6579
:1034D00000287FF451AF1C68E06C20F07B4020F4A2
:1034E0006F0020F43F4020F0FF000243E26443E716
:1034F00092FAA2F2B2FA82F202F01F020124944080
:1035000049E71868C26822F4401291F8264042EA5E
:103510004452C26054E7E06840F00070E060002070
:103520006CE791F82500012805D0E06820F00070D4
:10353000E060002062E75C6D44F020045C655DE7BC
:103540001F683D69684C2C404D6B6E1E8D6B45EAC3
:1035500006452C4344F002043C6159E74C691D6860
:10356000ED68C5F382056D00AC400F69042F26D0CD
:103570001D680E6805F1600C5CF8275005F00045E9
:1035800006F0F84634432C434CF827401C680E697B
:103590000D7F012D10D0603454F8265025F00045E1
:1035A0002A4344F8262077E04C69ED68AD0805F021
:1035B00004056D00AC40D8E74FF00042EBE71D6812
:1035C0002A6E2C6EC4F384640A68C2F31306002EBC
:1035D00035D1C2F38466B44236D01D686A6E6C6E13
:1035E000C4F384640A68C2F31306002E34D1C2F314
:1035F0008466B44235D01A6802F16006946E946E07
:10360000C4F384640A68C2F3130595BBC2F38465EE
:10361000AC4233D01D68EA6EEC6EC4F384640A6871
:10362000C2F3130696BBC2F38466B44234D1EC6E87
:1036300004F0004402F0F8422243EA662CE092FAD9
:10364000A2F6B6FA86F6C6E72C6E04F0004402F045
:10365000F84222432A66C0E792FAA2F6B6FA86F644
:10366000C7E76C6E04F0004402F0F84222436A6639
:10367000C1E792FAA2F5B5FA85F5C9E7F46804F056
:10368000004402F0F8422243F260C3E792FAA2F645
:10369000B6FA86F6C9E700201D68AA6812F0010F85
:1036A0001AD10A68CE68D5F8C040C2F3130724EADD
:1036B000070406F0180C0D4E26FA0CF63240C2F341
:1036C00013022243C5F8C020CC68094A944211D0A5
:1036D0000A68002AC0F2B580002283F8502003B0A7
:1036E000F0BD00BF0010005C1DFE00FCFFFF0F00DE
:1036F0000000FF471D680A68C2F31306002E37D189
:10370000940E013404F01F04092C8CBF0024012402
:10371000002C58D0002E37D1940E0134A40604F0AA
:10372000F844002E39D1970E013707F01F0C0127FE
:1037300007FA0CF73C43002E3AD1920E013202F008
:103740001F0202EB4202120522438C681435560E0A
:10375000B60006F00406AF59C2F304524FF0070C4E
:103760000CFA02FC27EA0C0794403C43AC51AFE74B
:1037700092FAA2F4B4FA84F4013404F01F04092C80
:103780008CBF00240124C3E792FAA2F4B4FA84F4B3
:103790000134A40604F0F844C3E792FAA2F7B7FA9A
:1037A00087F7013707F01F0C012707FA0CF7C1E76D
:1037B00092FAA2F2B2FA82F2013202F01F0202EB96
:1037C00042021205C0E7D6B9940E0134A40604F0F3
:1037D000F844EEB9970E013707F01F0C012707FADE
:1037E0000CF73C43FEB9920E013202F01F0202EBCD
:1037F00042021E3A120542F000722243A5E792FAF5
:10380000A2F4B4FA84F40134A40604F0F844E0E726
:1038100092FAA2F7B7FA87F7013707F01F0C0127D2
:1038200007FA0CF7DDE792FAA2F2B2FA82F201325D
:1038300002F01F0202EB42021E3A120542F0007231
:10384000DBE719683D4D3E4CA14218BFA9420CBFB1
:103850000125002531D1A4F58074A46814F0010479
:1038600000D00124364EB66816F0010600D00126BD
:1038700034430CBF01240024002C57D035B3314D04
:10388000AC6804F0E077304EB24221D02F4EB24205
:103890003DD02F4EB2427FF41FAF14F4800F7FF45F
:1038A0001BAF2C4A91427FF417AF47F48002A968FE
:1038B00021F0E0710A43AA600EE7264CA46814F0D8
:1038C000010400D0012484F00104D5E7224DD7E79C
:1038D00014F4000FDAD11F4A91427FF4FDAE47F491
:1038E0000002A96821F0E0710A43AA601B4A12682D
:1038F00092091B49A1FB021292095200019202E0B7
:10390000019A013A0192019A002AF9D1E4E614F0F1
:10391000807FBED10F4A91427FF4DEAE47F08072C5
:10392000A96821F0E0710A43AA60D5E65A6D42F019
:1039300020025A650120CFE60220D0E60020024096
:103940000021024000230240000084CB000052C747
:103950000000B8CF00600258006302581C00002429
:10396000632D3E0590F85020012A00F09E8030B46F
:103970009AB00346012280F8502000684C4A9042D9
:1039800042D000220192019A002A41D0926812F09E
:10399000040200D00122846814F0040F76D1002ABA
:1039A00074D1434C434A904218BFA04239D102F52A
:1039B0000072086800283FD0906820F440404C68AE
:1039C0002043906018683A4D3A4CA04218BFA84274
:1039D00029D1A86810F0010000D00120354CA4685E
:1039E00014F0010400D0012420430CBF012000206A
:1039F000002856D09468304820400C6889682143DC
:103A000008439060002046E002F580720192BAE718
:103A10005A6D42F020025A65002283F8502001209E
:103A20003CE0264AC5E72648806810F0010000D037
:103A3000012080F00100DBE7916821F440419160B2
:103A400019681B4C1B48814218BFA14215D1A168BF
:103A500011F0010100D001211648806810F001002A
:103A600000D0012001430CBF01210021D9B1906891
:103A700011490140916000200DE01149896811F061
:103A8000010100D0012181F00101EFE75A6D42F000
:103A900020025A650120002283F850201AB030BC61
:103AA00070470020F7E70020F5E70220704700BFCD
:103AB0000020024000210240E0F0FFFF00630258B6
:103AC0000060025801688B6813F0040300D00123E2
:103AD0008A6812F0080200D00122134307D1CA6895
:103AE000044B134043F00043CB600020704701209B
:103AF000704700BFFFFFDF7F0649CB6823F4E06318
:103B00001B041B0C000200F4E0600343024A1A434A
:103B1000CA60704700ED00E00000FA0500B5174BE1
:103B2000DB68C3F30223C3F1070CBCF1040F28BF09
:103B30004FF0040C03F1040EBEF1060F14D9033B41
:103B40004FF0FF3E0EFA0CFC21EA0C0199400EFAF0
:103B500003F322EA03031943002807DB0901C9B272
:103B6000074B19545DF804FB0023E9E700F00F0050
:103B70000901C9B2034B1954F4E700BF00ED00E09E
:103B800000E400E014ED00E0002807DB00F01F0275
:103B9000400901239340024A42F82030704700BF99
:103BA00000E100E00138B0F1807F0BD24FF0E0235C
:103BB0005861054AF02182F82310002098610722FD
:103BC0001A6170470120704700ED00E0F0B4876D86
:103BD0000468664E664DAC4218BFB44242D01835F8
:103BE000AC423FD01835AC423CD01835AC4239D04D
:103BF0001835AC4236D01835AC4233D01835AC420B
:103C000030D005F55675AC422CD01835AC4229D0D1
:103C10001835AC4226D01835AC4223D01835AC420A
:103C200020D01835AC421DD01835AC421AD018350A
:103C3000AC4217D04F4DAC4214D01435AC4211D029
:103C40001435AC420ED01435AC420BD01435AC4216
:103C500008D01435AC4205D01435AC4202D014352E
:103C6000AC4207D1446E856E6560C46E14B1046FBA
:103C7000456F656004683D4E3D4DAC4218BFB4428F
:103C800052D01835AC424FD01835AC424CD0183514
:103C9000AC4249D01835AC4246D01835AC4243D07E
:103CA0001835AC4240D005F55675AC423CD01835BD
:103CB000AC4239D01835AC4236D01835AC4233D08E
:103CC0001835AC4230D01835AC422DD01835AC4246
:103CD0002AD01835AC4227D0264E274DAC4218BF0B
:103CE000B44211D0254DAC420ED01435AC420BD0AD
:103CF0001435AC4208D01435AC4205D01435AC4272
:103D000002D01435AC4224D1C46D04F01F05012447
:103D1000AC407C60046863608368402B20D00368FB
:103D200099600368DA6014E0C46D04F01F0C3F244E
:103D300004FA0CF4BC6005682C6824F480242C6020
:103D4000046863608368402B05D00368996003684A
:103D5000DA60F0BC704703689A600368D960F8E7DE
:103D600003689A600368D960F3E700BF100002405F
:103D700028000240085402581C540258305402587B
:103D800003682749274A934218BF8B422FD0183225
:103D900093422CD01832934229D01832934226D025
:103DA0001832934223D01832934220D018329342D3
:103DB0001DD002F55672934219D01832934216D094
:103DC0001832934213D01832934210D018329342D3
:103DD0000DD0183293420AD01832934207D01832CD
:103DE000934204D023F0FF038365806D704710B4C5
:103DF000D9B210390C4AA2FB0142C2F302120B4C99
:103E0000A25CC2655F2907D9094A1A40043282655B
:103E1000806D5DF8044B7047054A1A408265F7E7EC
:103E20001000024028000240ABAAAAAA7439010877
:103E300000FCFFFF83699BB9836A012B0AD0022B28
:103E400002D00BB100207047C36A13F0807F2AD1E3
:103E500000207047C36AB3F1C07F26D000207047AE
:103E6000B3F5005F0AD0836A022B26D9032B26D133
:103E7000C36A13F0807F24D100207047836A032B2C
:103E800003D8DFE803F01404140A00207047C36A63
:103E900013F0807F0DD100207047C36AB3F1C07F5B
:103EA00009D0002070470120704701207047012091
:103EB00070470120704701207047012070470020A3
:103EC000704701207047000003682249224A93424C
:103ED00018BF8B4228D01432934225D0143293421B
:103EE00022D0143293421FD0143293421CD0143289
:103EF000934219D01432934216D0DAB2103A1749CD
:103F0000A1FB0212120916491944A8291FD9154B01
:103F100013449B000366144B436602F01F02012307
:103F200003FA02F282667047DBB2083B0F4AA2FB3B
:103F300003230F4A02EB1312920002660D4A4266F7
:103F4000C3F30413012202FA03F3836670470832B5
:103F5000DDE700BF085402581C540258ABAAAAAAB5
:103F6000F0FBFDBF0082001080080240CDCCCCCC1D
:103F7000009600168058025801794A1E072A2CD84C
:103F800030B40368154D164CA34218BFAB4218D08D
:103F90001434A34215D01434A34212D01434A342D3
:103FA0000FD01434A3420CD01434A34209D01434DB
:103FB000A34206D00B4B0B449B00C3660A4B03671E
:103FC00005E00A4B0B449B00C366094B03670123C2
:103FD00003FA02F2426730BC704770470854025837
:103FE0001C5402583F820010400902403F960016C0
:103FF0004059025870B50446FEF7BCF9002C00F099
:10400000B681054623685349534A934218BF8B42F1
:104010000CBF0122002250D030318B424DD01831DC
:104020008B424AD018318B4247D018318B4244D052
:1040300018318B4241D018318B423ED001F5567178
:104040008B423AD018318B4237D018318B4234D062
:1040500018318B4231D018318B422ED018318B421F
:104060002BD018318B4228D018318B4225D03B49B8
:104070003B4A934218BF8B4200F03181394A934248
:1040800000F02D811432934200F0298114329342C2
:1040900000F025811432934200F0218114329342C2
:1040A00000F01D811432934200F0198140236365B2
:1040B000032384F8353001204AE0002184F83410CD
:1040C000022184F835107ABB274A93422CD018324B
:1040D000934229D01832934226D01832934223D0EB
:1040E0001832934220D0183293421DD002F55672F6
:1040F000934219D01832934216D01832934213D0FB
:104100001832934210D0183293420DD01832934295
:104110000AD01832934207D01832934204D01A685A
:1041200022F001021A6003E01A6822F001021A600C
:1041300023681A6812F0010F18D0FEF71BF9431B11
:10414000052BF5D920236365032384F8353001203E
:1041500070BD00BF10000240280002400854025801
:104160001C54025830540258400002401A688148DA
:104170001040A168E2680A4321690A4361690A4361
:10418000A1690A43E1690A43216A0A430243616A59
:10419000042900F099807849086878490140B1F114
:1041A000005F11D36168A1F12905A1F13F00032847
:1041B00088BF052D06D9A1F14700012802D94F3942
:1041C000032901D842F480121A602668756925F027
:1041D0000705636A1D43042B08D1A36A1D43E36AE4
:1041E00023B12046FFF726FE002872D175612046D4
:1041F000FFF7C6FDE36D03F01F023F23934083608A
:1042000023685F495F4A934218BF8B4242D01832FD
:1042100093423FD0183293423CD01832934239D067
:104220001832934236D01832934233D01832934228
:1042300030D002F5567293422CD01832934229D0D6
:104240001832934226D01832934223D01832934228
:1042500020D0183293421DD0183293421AD018320F
:10426000934217D0484A934214D01432934211D04B
:10427000143293420ED0143293420BD01432934234
:1042800008D01432934205D01432934202D0143233
:10429000934213D12046FFF717FEA368802B59D015
:1042A000236E22791A60636EA26E5A606368013BC6
:1042B000072B52D90023E3662367636700206065FC
:1042C000012384F8353043E7E16A206B01430A4358
:1042D00061E740236365012084F8350038E7002258
:1042E00084F83420022284F835201A6827491140C6
:1042F000A268402A2CD0802A27D00022E06842EA17
:10430000D002206942EAD002606942EAD002A06984
:1043100042EAD002E06942EAD002206A42EA101280
:104320000A431A6022681A4B13441A4AA2FB032359
:104330001B099B00E3652046FFF722FDE26D02F0BA
:104340001F0101228A4042605AE74FF48042D5E7BC
:104350001022D3E700236360A2E72046FFF70CFE9C
:10436000E36E00221A60236F626F5A60A6E7012095
:10437000EEE600BF3F8010FE0010005C0000FFFF73
:104380001000024028000240085402580F00FEFFAF
:10439000F8ABFDA7CDCCCCCC002800F03E8170B5A9
:1043A000044690F83400012800F03981012084F897
:1043B000340094F83500C0B2012807D0002384F8F7
:1043C00034304FF400636365012070BD022084F82F
:1043D0003500002060652068924E934DA84218BFBA
:1043E000B0422FD01835A8422CD01835A84229D079
:1043F0001835A84226D01835A84223D01835A8422F
:1044000020D01835A8421DD005F55675A84219D000
:104410001835A84216D01835A84213D01835A8422E
:1044200010D01835A8420DD01835A8420AD018353A
:10443000A84207D01835A84204D0056825F0010528
:10444000056003E0056825F0010505602046FFF7DB
:10445000BDFB23687349744A934218BF8B4238D01E
:104460001832934235D01832934232D018329342E8
:104470002FD0183293422CD01832934229D01832C0
:10448000934226D002F55672934222D018329342BC
:104490001FD0183293421CD01832934219D01832D0
:1044A000934216D01832934213D01832934210D050
:1044B000183293420DD01A6822F00E0242F00A021E
:1044C0001A60236C93B12268136843F004031360ED
:1044D0000CE01A6822F01E0242F016021A60236CE9
:1044E00023B12268136843F00803136023684D4921
:1044F0004D4A934218BF8B4242D0183293423FD06C
:10450000183293423CD01832934239D01832934239
:1045100036D01832934233D01832934230D002F55D
:10452000567293422CD01832934229D018329342BB
:1045300026D01832934223D01832934220D018321A
:1045400093421DD0183293421AD01832934217D09A
:10455000364A934214D01432934211D0143293420B
:104560000ED0143293420BD01432934208D014323E
:10457000934205D01432934202D0143293420ED1AA
:10458000236E1A6812F4803F03D01A6842F48072D6
:104590001A60E36E1BB11A6842F480721A602368D5
:1045A0002049214A934218BF8B4230D0183293429F
:1045B0002DD0183293422AD01832934227D0183285
:1045C000934224D01832934221D0183293421ED005
:1045D00002F5567293421AD01832934217D018320D
:1045E000934214D01832934211D0183293420ED015
:1045F000183293420BD01832934208D018329342AB
:1046000005D01A6842F001021A600020DDE61A683F
:1046100042F001021A600020D7E601207047022014
:10462000D3E600BF100002402800024008540258A0
:10463000F0B583B00446002301937D4B1D687D4B8C
:10464000A3FB0535AD0A876D3E68D7F800C0036847
:1046500079497A48834218BF8B420CBF0120002061
:1046600061D0774A93425ED0183293425BD01832C1
:10467000934258D01832934255D01832934252D0B8
:10468000183293424FD002F5567293424BD01832F3
:10469000934248D01832934245D01832934242D0C8
:1046A000183293423FD0183293423CD01832934292
:1046B00039D01832934236D06249634A934218BFC8
:1046C0008B4212D0614A93420FD0143293420CD0E5
:1046D0001432934209D01432934206D014329342DA
:1046E00003D01432934240F061821A68E16D01F008
:1046F0001F010420884010EA0C0F00F0A78212F07E
:10470000040F00F0A382786012F4004F00F05A8288
:1047100012F4803F40F05082A36C002B00F04682E0
:104720002046984742E2E26D02F01F0108228A40CB
:10473000324241D070BB424A93422BD0183293424E
:1047400028D01832934225D01832934222D0183202
:1047500093421FD0183293421CD002F556729342F6
:1047600018D01832934215D01832934212D0183212
:1047700093420FD0183293420CD01832934209D092
:104780001832934206D01832934203D01A68C2F30B
:10479000C00202E01A68C2F380026AB11A6822F00D
:1047A00004021A60E36D03F01F0208239340BB600C
:1047B000636D43F001036365E26D02F01F0226FAA8
:1047C00002F313F0010F47D023681B481B498B42AB
:1047D00018BF83423CD018318B4239D018318B42FC
:1047E00036D018318B4233D018318B4230D018314B
:1047F0008B422DD018318B422AD001F556718B4255
:1048000026D018318B4223D018318B4220D018315A
:104810008B421DD018318B421AD018318B4217D0E1
:1048200018318B4214D018318B4211D01B6813E021
:104830001C000024B5814E1B1000024028000240DD
:1048400040000240085402581C5402583054025888
:104850005B6913F0800F3BD1E36D03F01F0304226B
:1048600002FA03F3334240D02268964896498A42BE
:1048700018BF824235D018318A4232D018318A426C
:104880002FD018318A422CD018318A4229D01831C1
:104890008A4226D018318A4223D001F556718A42C5
:1048A0001FD018318A421CD018318A4219D01831D1
:1048B0008A4216D018318A4213D018318A4210D059
:1048C00018318A420DD018318A420AD013680CE0A0
:1048D000012303FA02F2BA60636D43F002036365D9
:1048E000BAE7126812F0020F3DD1E36D03F01F0327
:1048F000102202FA03F333425FD0226871487249F2
:104900008A4218BF824234D018318A4231D01831DD
:104910008A422ED018318A422BD018318A4228D0B0
:1049200018318A4225D018318A4222D001F55671B9
:104930008A421ED018318A421BD018318A4218D0C0
:1049400018318A4215D018318A4212D018318A4261
:104950000FD018318A420CD018318A4209D012681F
:10496000C2F3800208E0BB60636D43F0040363653B
:10497000BBE71268C2F3C002FAB1BB6023681A68D1
:1049800012F4802F0DD01B6813F4002F04D1236C78
:104990009BB12046984710E0A36C73B1204698471E
:1049A0000BE01A6812F4807F03D11A6822F0080223
:1049B0001A60236C0BB120469847E36D03F01F0388
:1049C000202202FA03F3334200F0928022683D482D
:1049D0003D498A4218BF82422ED018318A422BD0DC
:1049E00018318A4228D018318A4225D018318A429B
:1049F00022D018318A421FD018318A421CD001F5CA
:104A000056718A4218D018318A4215D018318A421C
:104A100012D018318A420FD018318A420CD0183186
:104A20008A4209D018318A4206D018318A4203D00E
:104A30001268C2F3400202E01268C2F30012002AB8
:104A400056D0BB6094F83530DBB2042B0ED023680F
:104A50001A6812F4802F39D01B6813F4002F2CD160
:104A6000636C002B44D02046984741E022681368CD
:104A700023F0160313602268536923F08003536107
:104A8000236CB3B12268136823F008031360E36D4D
:104A900003F01F023F239340BB60002384F83430AF
:104AA000012384F83530236D002B7FD020469847B2
:104AB0007CE0A36C002BE5D1E9E7E36BC3B12046B2
:104AC000984715E010000240280002401A6812F4CE
:104AD000807F09D11A6822F010021A60002384F83E
:104AE0003430012384F83530E36B0BB1204698470E
:104AF000636D002B5AD0636D13F0010F52D0042365
:104B000084F8353023689649964A934218BF8B4201
:104B10002FD0183293422CD01832934229D0183219
:104B2000934226D01832934223D01832934220D099
:104B3000183293421DD002F55672934219D01832A2
:104B4000934216D01832934213D01832934210D0A9
:104B5000183293420DD0183293420AD01832934241
:104B600007D01832934204D01A6822F001021A606A
:104B700003E01A6822F001021A60019B01330193DD
:104B8000AB4204D823681B6813F0010FF5D1002352
:104B900084F8343023681B6813F0010F08D0032316
:104BA00084F83530E36C0BB12046984703B0F0BD74
:104BB000012384F83530F5E7236C002BF6D020462E
:104BC0009847F3E712F0200F3AD123686449654A09
:104BD000934218BF8B422FD0183293422CD01832F8
:104BE000934229D01832934226D01832934223D0D0
:104BF0001832934220D0183293421DD002F55672DB
:104C0000934219D01832934216D01832934213D0DF
:104C10001832934210D0183293420DD0183293427A
:104C20000AD01832934207D01832934204D01A683F
:104C300022F004021A6003E01A6822F008021A60E7
:104C4000236C002BB2D020469847AFE70220884063
:104C500010EA0C0F60D012F0020F5DD0786012F4F1
:104C6000004F0ED012F4803F05D1636C002B9DD015
:104C7000204698479AE7E36B002B97D02046984749
:104C800094E712F0200F40D123683549354A93420A
:104C900018BF8B422FD0183293422CD01832934237
:104CA00029D01832934226D01832934223D018329A
:104CB000934220D0183293421DD002F5567293428F
:104CC00019D01832934216D01832934213D01832AA
:104CD000934210D0183293420DD0183293420AD02A
:104CE0001832934207D01832934204D01A6822F047
:104CF0000A021A6003E01A6822F014021A60002304
:104D000084F83430012384F83530E36B002B3FF412
:104D10004DAF2046984749E7082000FA01F111EA13
:104D20000C0F3FF443AF12F0080F3FF43FAF1A6887
:104D300022F00E021A60E36D03F01F03012202FA53
:104D400003F37B606265002384F8343084F83520F7
:104D5000E36C002B3FF42AAF2046984726E700BFBC
:104D60001000024028000240F0B583B0002340E06C
:104D7000092400E00024B44044EA0C040235764ED5
:104D800046F825404FF0B044D4F88050D44325EA8B
:104D900002064F6817F4803F01D042EA05064FF043
:104DA000B045C5F88060D5F8845004EA05064F6820
:104DB00017F4003F01D042EA05064FF0B045C5F8B0
:104DC00084602D6804EA05064F6817F4801F01D03F
:104DD00042EA05064FF0B0452E606D682C404E68E3
:104DE00016F4001F01D042EA05044FF0B0425460AF
:104DF00001330A6832FA03F400F0AB804FF0010C83
:104E00000CFA03FC1CEA0202F2D04C68651E112C5D
:104E100018BF012D01D9122C13D185685E0003241F
:104E2000B44025EA0405CC68B4402C43846044684F
:104E300024EA0C0C4C68C4F300149C4044EA0C04B3
:104E40004460C6684FEA430C032505FA0CF5EC43B1
:104E500026EA050E8D6805FA0CF545EA0E05C560D3
:104E60004D68122D18BF022D12D1DE08083650F8F9
:104E7000267003F007054FEA850E0F2505FA0EF59B
:104E800027EA05070D6905FA0EF53D4340F826505F
:104E9000056825404C6804F0030404FA0CF42C4324
:104EA00004604C6814F0805FA2D02C4CD4F8F4500D
:104EB00045F00205C4F8F450D4F8F44004F00204BC
:104EC0000194019C9D08AE1C234C54F8267003F0FD
:104ED0000304A6000F24B44027EA040C204CA0428F
:104EE0003FF448AF04F58064A04222D004F580640A
:104EF000A04220D004F58064A0421ED004F5806456
:104F0000A0421CD004F58064A0421AD004F580644D
:104F1000A04218D004F58064A04216D004F5806445
:104F2000A04214D004F58064A0423FF421AF0A24CB
:104F300021E701241FE702241DE703241BE70424C3
:104F400019E7052417E7062415E7072413E70824C3
:104F500011E703B0F0BD00BF000400580044025840
:104F6000000002580369194201D001207047002057
:104F700070470AB1816170470904816170474369D4
:104F800031EA030301D081617047090481617047F0
:104F9000002857D010B5044690F84130002B41D07E
:104FA000242384F841302268136823F0010313603E
:104FB0006368226823F0706313612268936823F4A6
:104FC00000439360E368012B31D0A368226843F467
:104FD00004439360E368022B2FD0226851681A4B78
:104FE0000B4353602268D36823F40043D3602369E2
:104FF00062691343A169226843EA0123D360E3692C
:10500000216A22680B4313602268136843F001038E
:10501000136000206064202384F84130206384F80A
:10502000420010BD80F84030FCF7A0FBB8E7A36851
:10503000226843F400439360CCE723684FF4006296
:105040005A60CAE7012070470080000290F84130A2
:10505000DBB2202B24D190F84030012B22D0012349
:1050600080F84030242380F841300268136823F030
:10507000010313600268136823F48053136002680D
:105080001368194311600268136843F00103136049
:10509000202380F84130002380F8403018467047C4
:1050A000022070470220704790F84130DBB2202B7D
:1050B00022D190F84030012B20D0012380F84030DD
:1050C000242380F841300268136823F00103136041
:1050D0000268136823F4706343EA012111600268D7
:1050E000136843F001031360202380F8413000234C
:1050F00080F8403018467047022070470220704701
:1051000082B0094AD2F8F41041F00201C2F8F4105A
:10511000D2F8F42002F002020192019B034A536884
:105120000343536002B07047004402580004005823
:105130002DE9F04383B0D0F80080C1EBC10300EB50
:1051400083035A6D1B6D9A4254D807460C469B1A2E
:10515000C1EBC10200EB8202526C9A4200D31A46A4
:1051600002F103094FEA990915E006F103094FEA34
:105170009909C4EBC40507EB8505A96C3B7C00933A
:10518000B3B2E2B2404604F063FFAB6C3344AB64AD
:105190006B6D33446B6508EB441303F510639B6937
:1051A0009BB24B4512D3C4EBC40207EB8202516D94
:1051B000136D99420AD24BB15B1AC4EBC40207EBE0
:1051C0008202566C9E42D0D31E46CEE7C4EBC4008A
:1051D00007EB80073A6D7B6D9A420FD804F00F04FD
:1051E0000123A340D8F8344824EA0304C8F834481B
:1051F000002000E0012003B0BDE8F0830020FAE7C2
:1052000070B58AB0002800F097800546046890F8D1
:10521000BD333BB3032385F8BD33E36B13F4807FC9
:1052200001D100232B61286804F0A6FC2C4654F819
:10523000106BEC460FCCACE80F000FCCACE80F00C5
:1052400094E803008CE803002B1D0ECB304604F0DD
:10525000D5FB044658B1022385F8BD33012420460E
:105260000AB070BD80F8BC3306F0A4F8D2E7002184
:10527000286804F087FC234616E0C3EBC30205EB65
:105280008202012182F83D1082F83C30A2F84230BF
:10529000002182F83F1051649164C3EBC30205EB17
:1052A000820211650133DBB269688B42E5D316E0F7
:1052B000C4EBC40305EB8303002283F8FD2183F8CC
:1052C000FC4183F8FF21C3F80422C3F80822C4EB91
:1052D000C40305EB8303C3F810220134E4B2A142F6
:1052E000E6D82C4654F8106BEC460FCCACE80F0017
:1052F0000FCCACE80F0094E803008CE803002B1DF2
:105300000ECB304604F084FC044660B9002385F8D7
:105310003830012385F8BD336B6A012B08D028682B
:1053200005F04EF89BE7022385F8BD33012496E78C
:10533000284600F0C5FCF2E7012490E7026890F8E7
:10534000BC33012B19D010B50446012380F8BC33BF
:10535000836A012B09D0206805F026F8206804F044
:1053600005FC002084F8BC0310BD8369012BF2D03A
:10537000936B43F480339363EDE7022070470000A2
:1053800070B504460D460068066C00EB411303F54A
:1053900030639A682169012911D034498E424ED078
:1053A0003DB9C5EBC50304EB8303D3F81032002BE2
:1053B00056D0E9B2204606F047F8002070BD12F042
:1053C000080F09D02A498E42F7D912F4004FF4D0C1
:1053D0004FF400429A60F0E712F0200F02D0202232
:1053E0009A60EAE712F0280FE7D121498E4206D9E8
:1053F00012F4004F03D04FF400429A60DDE7C5EB92
:10540000C50204EB8202D2F804121B69C3F3120333
:10541000CB1AC2F81432D2F808320B44C2F8083260
:1054200015B9D2F8103223B1E9B2204606F00CF8D3
:10543000C3E704F57172012105F014F8F4E712F4E2
:10544000004F03D04FF400429A60B6E712F0200FED
:1054500001D020229A60E9B2204605F0F5FFACE7C2
:1054600004F57172002104F0FDFFA2E70A31544FE8
:105470000A30544F38B5044603681D6C03EB4113E2
:10548000D3F8081B0E4A954207D903F5306311F48F
:10549000004F02D04FF400429A60204605F0CCFF46
:1054A000074B9D4202D92369012B01D0002038BD52
:1054B00004F571720121206804F0D4FFF6E700BF03
:1054C0000A30544F2DE9F84F04460568284604F089
:1054D000B4FF08B1BDE8F88F0646206804F07CFFF1
:1054E0000028F7D0206804F077FF10F0020F04D0F6
:1054F0002268536903F002035361206804F06CFFD3
:1055000010F0100F14D02268936923F010039361F8
:105510002F6A07F00F08C7F34343022B00F0858082
:10552000062B00F0A1802268936943F01003936179
:10553000206804F051FF10F4002F40F0A78020688D
:1055400004F04AFF10F4802F40F0E980206804F056
:1055500043FF0028C0F25381206804F03DFF10F49F
:10556000006F0AD0D5F8083813F0010F40F06181C0
:105570002268536903F400635361206804F02CFF30
:1055800010F0006F15D02268536903F00063536177
:1055900094F8F433002B40F05081012184F8F41387
:1055A00023685B6DC3F38303C4F8F833204600F02F
:1055B0009BFB206804F010FF10F4805F40F04181F5
:1055C000206804F009FF10F4005F40F09581206826
:1055D00004F002FF10F0080F40F0A681206804F0EC
:1055E000FBFE10F4801F40F0A881206804F0F4FE58
:1055F00010F4001F40F0AB81206804F0EDFE10F0C5
:10560000804F40F0AE81206804F0E6FE10F0040FF9
:105610003FF460AF23685D6815F0040F40F0AA8185
:10562000226853682B43536054E747F6F0731F42D8
:105630003FF479AF4FEA171BC8EBC80904EB89099F
:10564000C7F30A12D9F80812284604F033FECBF348
:105650000A02D9F808321344C9F80832D9F81432CA
:105660001A44C9F814225EE7082204F5717128462D
:1056700004F020FEC7F30A17C8EBC80204EB82024D
:10568000D2F814321F44C2F814724CE7206804F0B8
:10569000A7FE0746B04616E005EB48130122C3F803
:1056A000082B41462046FFF76BFE1BE005EB481335
:1056B0000822C3F8082B41462046FFF7DBFE14E022
:1056C00008F101087F08002F3FF439AF17F0010FF0
:1056D000F6D05FFA88F1206804F092FE814610F05F
:1056E000010FD9D119F0080FE0D119F0100F04D033
:1056F00005EB48131022C3F8082B19F0200F04D033
:1057000005EB48132022C3F8082B19F4005FD7D00B
:1057100005EB48134FF40052C3F8082BD0E720687C
:1057200004F066FE0746B04629E05146204605F0E3
:1057300097FE19F0080F04D005EB48130822C3F8B0
:10574000082919F0100F04D005EB48131022C3F8F4
:10575000082919F0400F04D005EB48134022C3F884
:10576000082919F0020F04D005EB48130222C3F8F0
:10577000082919F0800F3DD108F101087F08002F9A
:105780003FF4E4AE17F0010FF6D05FFA88FA514605
:10579000206804F03EFE814610F0010FC9D008F0E9
:1057A0000F03012101FA03F2D5F8343823EA02038A
:1057B000C5F8343805EB4813C3F8081923698B4240
:1057C000B3D1C8EBC80304EB8303596C9A6C0A4449
:1057D0009A64B8F1000FA8D1C8EBC80304EB8303A7
:1057E0001B6D002BA1D104F571720121206804F01A
:1057F00039FE9AE741462046FFF79AFCBCE7D5F808
:10580000043823F00103C5F8043894F8F433012B6D
:1058100008D0204605F064FE2268536903F0004377
:10582000536199E6002184F8F413204600F05CFAF5
:10583000F2E7204605F03CFE9AE6204605F038FEE9
:10584000B7E605F500677B6823F001037B60102154
:10585000206804F0AFF920E005EB46134FF67F31E6
:10586000C3F80819D3F8002922F40012C3F800295C
:10587000D3F8002942F00062C3F80029C3F8081BDE
:10588000D3F8002B22F40012C3F8002BD3F8002B1E
:1058900042F00062C3F8002B01366368B342DBD8E4
:1058A000FB6943F00113FB61236BDBB1D7F8843054
:1058B00043F00B03C7F884307B6C43F00B037B642D
:1058C000D5F8003823F4FE63C5F8003804F571728A
:1058D000217C206804F0C6FD2268536903F48053DC
:1058E00053616DE67A6942F22B0313437B613B6996
:1058F00043F00B033B61E3E7206804F0A3FD20685D
:1059000004F04AFAE060256800F08AFF0146227B35
:10591000284604F0B9F8204605F0B3FD2268536923
:1059200003F40053536152E6204605F0A4FD2268BB
:10593000536903F00803536150E60021204605F047
:10594000DBFD2268536903F4801353614DE60021A7
:10595000204605F0CBFD2268536903F40013536120
:105960004AE6204605F0CEFD2268536903F08043E5
:10597000536148E6204605F0CBFD51E690F8BC3374
:10598000012B0DD010B50446012380F8BC3380F8FC
:105990003810006804F0F8FC002084F8BC0310BD47
:1059A0000220704738B505468C4611F0800F29D18A
:1059B00001F00F0ECEEBCE04A40004F5FC740444F9
:1059C000211DCEEBCE0E00EB8E0E00208EF8FD01D9
:1059D0000CF00F0C81F800C08A60CB704A780AB1D5
:1059E000A1F806C0022B1DD095F8BC33012B1CD0AA
:1059F000012385F8BC33286804F0DEF9002085F81F
:105A0000BC0338BD01F00F00C0EBC0018900383184
:105A100029440431C0EBC00005EB8000012480F86C
:105A20003D40D5E700230B71DEE70220E9E710B522
:105A300004460A4611F0800F20D101F00F00C0EBA0
:105A4000C0039B0003F5FC732344191DC0EBC00089
:105A500004EB8000002380F8FD3102F00F020A7091
:105A600094F8BC33012B19D0012384F8BC3320688F
:105A700004F0F0F9002084F8BC0310BD01F00F0021
:105A8000C0EBC0039B0038332344191DC0EBC0009A
:105A900004EB8000012380F83D30DEE70220ECE7D4
:105AA00010B501F00F04C4EBC401890001F5FC71CD
:105AB00001440431C4EBC40C00EB8C0CCCF808227C
:105AC000CCF810320023CCF814328CF8FD318CF86D
:105AD000FC410369012B06D064B9DAB2006804F016
:105AE00029FA002010BDC4EBC40C00EB8C0CCCF8E0
:105AF0000C22F1E7DAB2006804F0C2FAF1E701F033
